:10000000ACC21895189518951895189518953AC179
:100010001895189518951895189518951895189578
:10002000189518950CD0F5D004E602BD02E301BD89
:100030000AE004BD06B5006106BD7894FFCF08ED67
:100040000CBF00E007BF08ED0CBF00E006BFEB9A55
:1000500001B1006601B9E09A10D10CB306600CBB87
:100060000DB3097F0DBB08E400BB07E802BB00E04D
:1000700001BB00E108B902B3006C02BB08958AD24B
:1000800000E0009901E001990E5F02990C5F102FCA
:100090001A9529F01A9519F0125009F04AC0A8D003
:1000A00050D22A3010E03040C1F50A9529F00A9567
:1000B00081F00250B9F02FC079D031F42BD2023048
:1000C000E0F40081039518C001E0008326D210837C
:1000D00014C026D211F41BD2108322D271F00081F9
:1000E0000A950AC063D0A9F0EAEAF0E0008108D2DC
:1000F000002331F485D010D2008352D05CD006C0EA
:1001000002E0FAD101E0EFE8F0E0F6D1E1E9F0E059
:1001100001931083EDD179D018C077D0F6D16DD08E
:10012000083C20E01040B8F00AE062D00193208340
:1001300012C05ED0819190818530904040F45BD0B8
:10014000012B49F058D001501040DFD104C005E028
:1001500010E04ED0D1D1E3EAF0E0039B0DC0C5D151
:1001600019F400E0D4D1008318D0012BA1F015D0F0
:1001700001501040CAD10FC0B8D161F4C8D1D1D15B
:1001800049F4CAD100830CD010E015D0E1E9F0E0C9
:10019000B3D136D0ADD1E0E002C2E3EAF0E02DC049
:1001A0004081EDE8F0E050E006E00895E9EAF0E093
:1001B000008101300895DED10851A02F104B0BD0E3
:1001C0000ED00651A02F104B06D0EFE8F0E007D07C
:1001D0000451A02F104BB12F0D911C910895019344
:1001E0001083E8EAF0E0408150E006E010E0C2C190
:1001F000E1EAF0E00895E1EAF0E00191108108956C
:1002000001E0E9EAF0E000830895F5DF0F5F1F4F9A
:10021000089501E012B11F7912B9E8984FED53E942
:1002200064E0415050406040E1F700C00000219977
:1002300006C0229902C005E008C004E006C0229969
:1002400002C003E002C0039B02E011E0E89A4FE322
:100250005DE063E0415050406040E1F700C00000C5
:1002600024D14FE151EA67E0415050406040E1F74E
:1002700000C000001395011748F702B10F7902B9C9
:10028000E8980895BA93AA938A93FA93EA937A9393
:100290006A935A934A933A932A931A930A938FB77D
:1002A00036D13FD129F4E9DF0DB3097F0DBBA8C0DA
:1002B00003D10F3308F45EC000E00083E7EAF0E00A
:1002C00030D109F1ECEAF0E01081112312F4EDD005
:1002D0000CC0EFD033D109F0159AF5D02FD109F029
:1002E000169AEED02BD109F0E89A212F1395ECEA5B
:1002F000F0E0108305D102179CF40195ECEAF0E0E0
:100300000083FED00DC0D5D0F0D009F0159ADBD017
:10031000ECD009F0169AD4D0F2D0012B09F0E89A6B
:100320006CDF12D130F4C5D00191015030403083E0
:100330000293BFD0E4D00AD118F4BBD00191E3D02E
:10034000EFE8F0E05ADFBFD001D110F4BCD0F0D01C
:10035000BAD0EAD010F4B7D0C2D0E1E9F0E04DDF76
:10036000AFD0F4D010F4ACD0E3D0AAD0DDD010F4EC
:10037000A7D0B5D0A1D010E0E7D008F01598A3D051
:10038000E5D008F016989CD0E1D008F0E898E5EAAE
:10039000F0E033DF083C21E0120720F100E010E03C
:1003A000E5EAF0E001930083B5D07AD00452A02FA3
:1003B000104B11DFE9E9F0E09FD0ACD010E070D035
:1003C0000252A02F104B07DFEBE9F0E095D0E9E9EE
:1003D000F0E08BD009F0EA9AEBE9F0E086D081F00A
:1003E000E9980EC0E9E9F0E0B1D009F4EA98EBE948
:1003F000F0E0ACD009F4E99AE5EAF0E0FEDE83D063
:100400005BD0039500830F3111F439DE3AC0053318
:10041000C1F50EB11FB1EDE9F0E06ED0EDE9F0E00D
:10042000ECDE0735114030F454D020F44FD00F5F8C
:100430001F4F0DC0EDE9F0E0E0DE0835114040F05F
:10044000EFE9F0E052D021F041D0015010405DD0F2
:1004500040D030F001E0EAEAF0E0008304E609C0B1
:1004600035D0E351F040012B49F400E0EAEAF0E036
:100470000083E7EAF0E00083EA51F04002B3006C49
:1004800002BB8FBF099119912991399149915991D5
:1004900069917991E991F9918991A991B991189509
:1004A000000F111F000F111F089522B12F7922B9DB
:1004B000E7CEE3E9F0E00895EBEAF0E0008108958B
:1004C000E7E9F0E00895E5E9F0E00895EFE9F0E00C
:1004D00094CEEFE9F0E091DE0C3B124008950191DB
:1004E0000F5F3F4F30830293089587DE012B0895FD
:1004F0000EE319E4E3EAF0E00193108308957DDE52
:10050000EDE8F0E008950F5F1F4F1083ECCFE9EAAC
:10051000F0E0089502D0D2CF02E0E8EAF0E00895DA
:10052000FCDF0081002308950CD0201731070895C7
:1005300021912150304030832293089502D0232B03
:100540000895219130810895E3E9F0E0FADF021780
:100550001307089500008895FECF0CE80DBF00E05A
:100560000EBFC5E6D0E030D0002309F03DD05ADD03
:10057000F1DFF0CF222733270030010741F0169535
:10058000079510F4240F351F440F551FF5CF022F88
:10059000132F0895BA93AA939A938A930895F4E037
:1005A00000C08991FA9541F09991FA9529F0A991A5
:1005B000FA9511F0B991F0E00F930FB7F894CE0FC0
:1005C000DF1F0FBF0F91089501E0089520E006D0CE
:1005D000E9F70895219102D0E9F708952D9301508C
:1005E0001040202F212B08958AEF9FE4E82FF92F48
:1005F00001911081E82FF92FEE5FFF4FA191B0819B
:10060000E82FF92FEC5FFF4F21913081422F432BD0
:1006100021F0E22FF32FDEDF01C0D8DF8A5F9F4F8A
:0A06200010E58030910710F30895F3
:100FBC000000000000000000000000000000C8015C
:100FCC000000BC0200000000000000000000000057
:100FDC0096004F012C01D700C8015B0004000300F0
:100FEC00060014000F001E00280023003C00200007
:040FFC008D00BC4F59
:00000001FF
:00000001FF
