:100000009CC218951895189518951895189535C18E
:100010001895189518951895189518951895189578
:10002000189518950CD0F0D004E602BD02E301BD8E
:100030000AE004BD06B5006106BD7894FFCF08ED67
:100040000CBF00E007BF08ED0CBF00E006BFEB9A55
:1000500001B1006601B9E09A0BD10CB306600CBB8C
:100060000DB3097F0DBB08E400BB07E802BB00E04D
:1000700001BB00E108B902B3006C02BB08957AD25B
:1000800000E0009901E001990E5F02990C5F102FCA
:100090001A9529F01A9519F0125009F04AC0A3D008
:1000A00040D22A3010E03040C1F50A9529F00A9577
:1000B00081F00250B9F02FC074D031F41CD202305C
:1000C000E0F40081039518C001E0008316D210838C
:1000D00014C016D211F40CD2108312D271F0008128
:1000E0000A950AC05ED0A9F0EAEAF0E00081F8D1F2
:1000F000002331F480D001D200834DD057D006C008
:1001000002E0E7D101E0EFE8F0E0E3D1E1E9F0E07F
:1001100001931083DBD174D018C072D0E7D168D0BE
:10012000083C20E01040B8F00AE05DD00193208345
:1001300012C059D0819190818530904040F456D0C2
:10014000012B49F053D001501040D0D104C005E03C
:1001500010E049D0BED1C0D1039B0BC0B4D119F47B
:1001600000E0C6D10083B8D1AED199F0B5D1BBD1F2
:1001700010C0A9D169F4BCD1C4D151F401E0BDD102
:10018000008309D010E012D0E1E9F0E0A2D133D031
:100190009DD1E0E0F4C14081EDE8F0E050E006E000
:1001A0000895E9EAF0E0008101300895D3D10851C3
:1001B000A02F104B0BD00ED00651A02F104B06D005
:1001C000EFE8F0E007D00451A02F104BB12F0D91B4
:1001D0001C91089501931083E8EAF0E0408150E01B
:1001E00006E010E0B7C1E1EAF0E00895E1EAF0E0EE
:1001F00001911081089501E0E9EAF0E0008308959B
:10020000F5DF0F5F1F4F089501E012B11F7912B99A
:10021000E8984FED53E964E0415050406040E1F709
:1002200000C00000219906C0229902C005E008C064
:1002300004E006C0229902C003E002C0039B02E072
:1002400011E0E89A4FE35DE063E0415050406040C8
:10025000E1F700C000001DD14FE151EA67E04150D5
:1002600050406040E1F700C000001395011748F7C7
:1002700002B10F7902B9E8980895BA93AA938A93C4
:10028000FA93EA937A936A935A934A933A932A9306
:100290001A930A938FB72CD134D129F4E9DF0DB327
:1002A000097F0DBBA8C0FCD00F3308F460C000E08C
:1002B0000083E7EAF0E025D109F1ECEAF0E01081F3
:1002C000112312F4E6D00CC0E8D028D109F0159A19
:1002D000EED024D109F0169AE7D020D109F0E89A9F
:1002E000212F1395ECEAF0E01083FAD002179CF46A
:1002F0000195ECEAF0E00083F3D00DC0CED0E3D05E
:1003000009F0159AD4D0DFD009F0169ACDD0E7D0F5
:10031000012B09F0E89A6CDF07D130F4BED00191CF
:100320000150304030830293B8D0D9D0FFD028F4A8
:10033000B4D001910F5F1F4FD9D0EFE8F0E058DF44
:10034000B6D0F4D010F4B3D0E3D0B1D0DDD010F4F7
:10035000AED0B0D0E1E9F0E04BDFA6D0E7D010F4AA
:10036000A3D0D6D0A1D0D0D010F49ED0A3D098D016
:1003700010E0DAD008F015989AD0D8D008F0169886
:1003800093D0D4D008F0E8989BD0083C21E0120725
:1003900020F100E010E0E5EAF0E001930083ABD04B
:1003A00073D00452A02F104B11DFE9E9F0E091D097
:1003B000A2D010E069D00252A02F104B07DFEBE96A
:1003C000F0E087D0E9E9F0E07ED009F0EA9AEBE9C5
:1003D000F0E079D081F0E9980EC0E9E9F0E0A6D02C
:1003E00009F4EA98EBE9F0E0A1D009F4E99A68D0C1
:1003F0000F5F1F4F7BD054D0039500830F3111F452
:100400003EDE30C0053371F50EB11FB1EDE9F0E00D
:1004100060D0EDE9F0E0ECDEEDE9F0E054D029F059
:1004200030D051D011F02DD05ED02BD0E1DE0C3B7E
:10043000124030F001E0EAEAF0E0008304E60AC08E
:1004400020D0D6DEE351F040012B49F400E0EAEA87
:10045000F0E00083E7EAF0E00083EA51F04002B305
:10046000006C02BB8FBF0991199129913991499173
:10047000599169917991E991F9918991A991B991EC
:100480001895EFE9F0E00895000F111F000F111FFC
:10049000089522B12F7922B9EECEE3E9F0E0089574
:1004A000EBEAF0E000810895E7E9F0E00895E5E97E
:1004B000F0E0089501910F5F3F4F3083029308955C
:1004C000E5EAF0E095CE94DE012B08950EE319E401
:1004D00003D0019310830895E3EAF0E0089588DEE5
:1004E000EDE8F0E0089584DE015010401083E6CF7F
:1004F000E9EAF0E0089501D0D5CFE8EAF0E0089508
:10050000FCDF0081002308950CD0201731070895E7
:1005100021912150304030832293089502D0232B23
:100520000895219130810895E3E9F0E0FADF0217A0
:100530001307089500008895FECF0CE80DBF00E07A
:100540000EBFC5E6D0E030D0002309F03DD06ADD13
:10055000F1DFF0CF222733270030010741F0169555
:10056000079510F4240F351F440F551FF5CF022FA8
:10057000132F0895BA93AA939A938A930895F4E057
:1005800000C08991FA9541F09991FA9529F0A991C5
:10059000FA9511F0B991F0E00F930FB7F894CE0FE0
:1005A000DF1F0FBF0F91089501E0089520E006D0EE
:1005B000E9F70895219102D0E9F708952D930150AC
:1005C0001040202F212B08958AEF9FE4E82FF92F68
:1005D00001911081E82FF92FEE5FFF4FA191B081BB
:1005E000E82FF92FEC5FFF4F21913081422F432BF1
:1005F00021F0E22FF32FDEDF01C0D8DF8A5F9F4FAB
:0A06000010E58030910710F3089513
:100FBC000000000000000000000000000000C8015C
:100FCC000000BC0200000000000000000000000057
:100FDC0096004F012C01D700C8015B0004000300F0
:100FEC00060014000F001E00280023003C00200007
:040FFC008D00BC4F59
:00000001FF
:00000001FF
