:10000000A6C218951895189518951895189538C181
:100010001895189518951895189518951895189578
:10002000189518950CD0F3D004E602BD02E301BD8B
:100030000AE004BD06B5006106BD7894FFCF08ED67
:100040000CBF00E007BF08ED0CBF00E006BFEB9A55
:1000500001B1006601B9E09A0ED10CB306600CBB89
:100060000DB3097F0DBB08E400BB07E802BB00E04D
:1000700001BB00E108B902B3006C02BB089584D251
:1000800000E0009901E001990E5F02990C5F102FCA
:100090001A9529F01A9519F0125009F04AC0A4D007
:1000A0004AD22A3010E03040C1F50A9529F00A956D
:1000B00081F00250B9F02FC076D031F426D2023050
:1000C000E0F40081039518C001E0008320D2108382
:1000D00014C020D211F494D010831CD271F000818E
:1000E0000A950AC060D0A9F0EAEAF0E0008106D2E1
:1000F000002331F481D00BD200834FD058D006C0FA
:1001000002E0F8D101E0EFE8F0E0F4D1E1E9F0E05D
:1001100001931083EBD177D018C075D0F4D169D09A
:10012000083C20E01040B8F00AE05ED00193208344
:1001300012C05AD0819190818530904040F457D0C0
:10014000012B49F054D001501040DDD104C005E02E
:1001500010E04AD0CFD1E3EAF0E0039B09C049D0D8
:1001600019D0012BA9F016D001501040CCD110C0ED
:10017000BAD169F445D0CFD151F401E0C8D10083A0
:100180000CD010E014D0E1E9F0E0B4D135D0AED11C
:10019000E0E0FFC1E3EAF0E02CC04081EDE8F0E0F0
:1001A00050E006E008952CD0008101300895DCD1A4
:1001B0000851A02F104B0BD00ED00651A02F104B82
:1001C00006D0EFE8F0E007D00451A02F104BB12F7C
:1001D0000D911C91089501931083E8EAF0E04081AD
:1001E00050E006E010E0C0C1E1EAF0E00895E1EA85
:1001F000F0E001911081089501E002D0008308959C
:10020000E9EAF0E00895F3DF0F5F1F4F089501E082
:1002100012B11F7912B9E8984FED53E964E04150EB
:1002200050406040E1F700C00000219906C02299CB
:1002300002C005E008C004E006C0229902C003E045
:1002400002C0039B02E011E0E89A4FE35DE063E047
:10025000415050406040E1F700C0000024D14FE120
:1002600051EA67E0415050406040E1F700C00000B3
:100270001395011748F702B10F7902B9E89808956C
:10028000BA93AA938A93FA93EA937A936A935A93C6
:100290004A933A932A931A930A938FB7B1DF3BD1CB
:1002A00029F4E9DF0DB3097F0DBBA8C003D10F33DB
:1002B00008F45EC000E00083E7EAF0E02CD109F129
:1002C000ECEAF0E01081112312F4EDD00CC0EFD075
:1002D0002FD109F0159AF5D02BD109F0169AEED04E
:1002E00027D109F0E89A212F1395ECEAF0E010836A
:1002F00005D102179CF40195ECEAF0E00083FED0F2
:100300000DC0D5D0F0D009F0159ADBD0ECD009F0B3
:10031000169AD4D0F2D0012B09F0E89A6ADF0ED1F8
:1003200030F4C5D001910150304030830293BFD0EA
:10033000E4D006D118F4BBD00191E3D0EFE8F0E0AF
:1003400058DFBFD0FDD010F4BCD0ECD0BAD0E6D08E
:1003500010F4B7D0C2D0E1E9F0E04BDFAFD0F0D07D
:1003600010F4ACD0DFD0AAD0D9D010F4A7D0B5D03B
:10037000A1D010E0E3D008F01598A3D0E1D008F0A8
:1003800016989CD0DDD008F0E898E5EAF0E031DF7F
:10039000083C21E0120720F100E010E0E5EAF0E07F
:1003A00001930083B2D07AD00452A02F104B0FDFFC
:1003B000E9E9F0E09FD0A9D010E070D00252A02F60
:1003C000104B05DFEBE9F0E095D0E9E9F0E08BD0E8
:1003D00009F0EA9AEBE9F0E086D081F0E9980EC0E6
:1003E000E9E9F0E0ADD009F4EA98EBE9F0E0A8D053
:1003F00009F4E99AE5EAF0E0FCDE83D05BD00395EE
:1004000000830F3111F43BDE3AC00533C1F50EB164
:100410001FB1EDE9F0E06ED0EDE9F0E0EADE07357E
:10042000114030F454D020F44FD00F5F1F4F0DC057
:10043000EDE9F0E0DEDE0835114040F0EFE9F0E0F4
:1004400052D021F041D0015010405DD040D030F06A
:1004500001E0EAEAF0E0008304E609C035D0E351A8
:10046000F040012B49F400E0EAEAF0E00083E7EA1B
:10047000F0E00083EA51F04002B3006C02BB8FBF92
:1004800009911991299139914991599169917991DC
:10049000E991F9918991A991B9911895000F111FCE
:1004A000000F111F089522B12F7922B9E7CEE3E999
:1004B000F0E00895EBEAF0E000810895E7E9F0E06C
:1004C0000895E5E9F0E00895EFE9F0E092CEEFE974
:1004D000F0E08FDE0C3B1240089501910F5F3F4F1B
:1004E00030830293089585DE012B08950EE319E40D
:1004F000E3EAF0E00193108308957BDEEDE8F0E09D
:1005000008950F5F1F4F1083ECCF01D0D5CFE8EADD
:10051000F0E00895FCDF0081002308950CD020173F
:10052000310708952191215030403083229308955E
:1005300002D0232B0895219130810895E3E9F0E062
:10054000FADF02171307089500008895FECF0CE824
:100550000DBF00E00EBFC5E6D0E030D0002309F0AB
:100560003DD060DDF1DFF0CF2227332700300107D7
:1005700041F01695079510F4240F351F440F551FB1
:10058000F5CF022F132F0895BA93AA939A938A93C3
:100590000895F4E000C08991FA9541F09991FA9597
:1005A00029F0A991FA9511F0B991F0E00F930FB7E6
:1005B000F894CE0FDF1F0FBF0F91089501E008954B
:1005C00020E006D0E9F70895219102D0E9F70895D7
:1005D0002D9301501040202F212B08958AEF9FE486
:1005E000E82FF92F01911081E82FF92FEE5FFF4FCF
:1005F000A191B081E82FF92FEC5FFF4F219130815D
:10060000422F432B21F0E22FF32FDEDF01C0D8DF92
:0E0610008A5F9F4F10E58030910710F3089528
:100FBC000000000000000000000000000000C8015C
:100FCC000000BC0200000000000000000000000057
:100FDC00960031012C019B00C801000004000300A5
:100FEC00060014000F001E00280023003C00200007
:040FFC008D00BC4F59
:00000001FF
:00000001FF
