:1000000096C218951895189518951895189532C197
:100010001895189518951895189518951895189578
:10002000189518950CD0EDD004E602BD02E301BD91
:100030000AE004BD06B5006106BD7894FFCF08ED67
:100040000CBF00E007BF08ED0CBF00E006BFEB9A55
:1000500001B1006601B9E09A08D10CB306600CBB8F
:100060000DB3097F0DBB08E400BB07E802BB00E04D
:1000700001BB00E108B902B3006C02BB089574D261
:1000800000E0009901E001990E5F02990C5F102FCA
:100090001A9529F01A9519F0125009F04AC09ED00D
:1000A0003AD22A3010E03040C1F50A9529F00A957D
:1000B00081F00250B9F02FC070D031F416D2023066
:1000C000E0F40081039518C001E0008310D2108392
:1000D00014C010D211F48ED010830CD271F00081B4
:1000E0000A950AC05AD0A9F0EAEAF0E00081F5D1F9
:1000F000002331F47BD0FBD1008349D052D006C01D
:1001000002E0E4D101E0EFE8F0E0E0D1E1E9F0E085
:1001100001931083D8D171D018C06FD0E4D163D0CF
:10012000083C20E01040B8F00AE058D0019320834A
:1001300012C054D0819190818530904040F451D0CC
:10014000012B49F04ED001501040CDD104C005E044
:1001500010E044D0BBD1BDD1039B07C044D0B9D17E
:10016000AFD199F0B6D1BCD110C0AAD169F442D0B8
:10017000C2D151F401E0BBD1008309D010E011D00D
:10018000E1E9F0E0A3D132D09ED1E0E0F2C14081BC
:10019000EDE8F0E050E006E008952CD00081013059
:1001A0000895D2D10851A02F104B0BD00ED006517C
:1001B000A02F104B06D0EFE8F0E007D00451A02F9D
:1001C000104BB12F0D911C91089501931083E8EA13
:1001D000F0E0408150E006E010E0B6C1E1EAF0E076
:1001E0000895E1EAF0E001911081089501E002D064
:1001F00000830895E9EAF0E00895F3DF0F5F1F4FF1
:10020000089501E012B11F7912B9E8984FED53E952
:1002100064E0415050406040E1F700C00000219987
:1002200006C0229902C005E008C004E006C0229979
:1002300002C003E002C0039B02E011E0E89A4FE332
:100240005DE063E0415050406040E1F700C00000D5
:100250001DD14FE151EA67E0415050406040E1F765
:1002600000C000001395011748F702B10F7902B9D9
:10027000E8980895BA93AA938A93FA93EA937A93A3
:100280006A935A934A933A932A931A930A938FB78D
:10029000B1DF31D129F4E9DF0DB3097F0DBBA8C06F
:1002A000FCD00F3308F460C000E00083E7EAF0E020
:1002B00022D109F1ECEAF0E01081112312F4E6D02A
:1002C0000CC0E8D025D109F0159AEED021D109F063
:1002D000169AE7D01DD109F0E89A212F1395ECEA80
:1002E000F0E01083FAD002179CF40195ECEAF0E0FC
:1002F0000083F3D00DC0CED0E3D009F0159AD4D04E
:10030000DFD009F0169ACDD0E7D0012B09F0E89A9A
:100310006ADF04D130F4BED0019101503040308307
:100320000293B8D0D9D0FCD028F4B4D001910F5F9B
:100330001F4FD9D0EFE8F0E056DFB6D0F1D010F47F
:10034000B3D0E0D0B1D0DAD010F4AED0B0D0E1E983
:10035000F0E049DFA6D0E4D010F4A3D0D3D0A1D0F0
:10036000CDD010F49ED0A3D098D010E0D7D008F014
:1003700015989AD0D5D008F0169893D0D1D008F01F
:10038000E8989BD0083C21E0120720F100E010E043
:10039000E5EAF0E001930083A8D073D00452A02FC7
:1003A000104B0FDFE9E9F0E091D09FD010E069D069
:1003B0000252A02F104B05DFEBE9F0E087D0E9E90E
:1003C000F0E07ED009F0EA9AEBE9F0E079D081F034
:1003D000E9980EC0E9E9F0E0A3D009F4EA98EBE966
:1003E000F0E09ED009F4E99A68D00F5F1F4F7BD0F0
:1003F00054D0039500830F3111F441DE30C0053332
:1004000071F50EB11FB1EDE9F0E060D0EDE9F0E07B
:10041000EADEEDE9F0E054D029F030D051D011F00F
:100420002DD05ED02BD0DFDE0C3B124030F001E04F
:10043000EAEAF0E0008304E60AC020D0D4DEE3510B
:10044000F040012B49F400E0EAEAF0E00083E7EA3B
:10045000F0E00083EA51F04002B3006C02BB8FBFB2
:1004600009911991299139914991599169917991FC
:10047000E991F9918991A991B9911895EFE9F0E085
:100480000895000F111F000F111F089522B12F7939
:1004900022B9EECEE3E9F0E00895EBEAF0E0008166
:1004A0000895E7E9F0E00895E5E9F0E008950191A5
:1004B0000F5F3F4F308302930895E5EAF0E093CE5B
:1004C00092DE012B08950EE319E403D0019310830B
:1004D0000895E3EAF0E0089586DEEDE8F0E008959F
:1004E00082DE015010401083E6CF01D0D8CFE8EA79
:1004F000F0E00895FCDF0081002308950CD0201760
:10050000310708952191215030403083229308957E
:1005100002D0232B0895219130810895E3E9F0E082
:10052000FADF02171307089500008895FECF0CE844
:100530000DBF00E00EBFC5E6D0E030D0002309F0CB
:100540003DD070DDF1DFF0CF2227332700300107E7
:1005500041F01695079510F4240F351F440F551FD1
:10056000F5CF022F132F0895BA93AA939A938A93E3
:100570000895F4E000C08991FA9541F09991FA95B7
:1005800029F0A991FA9511F0B991F0E00F930FB706
:10059000F894CE0FDF1F0FBF0F91089501E008956B
:1005A00020E006D0E9F70895219102D0E9F70895F7
:1005B0002D9301501040202F212B08958AEF9FE4A6
:1005C000E82FF92F01911081E82FF92FEE5FFF4FEF
:1005D000A191B081E82FF92FEC5FFF4F219130817D
:1005E000422F432B21F0E22FF32FDEDF01C0D8DFB3
:0E05F0008A5F9F4F10E58030910710F3089549
:100FBC000000000000000000000000000000C8015C
:100FCC000000BC0200000000000000000000000057
:100FDC00960031012C019B00C801000004000300A5
:100FEC00060014000F001E00280023003C00200007
:040FFC008D00BC4F59
:00000001FF
:00000001FF
