:10000000B8C21895189518951895189518953FC168
:100010001895189518951895189518951895189578
:10002000189518950DD0FAD004E602BD02E301BD83
:100030000AE004BD06B5006106BDC7D07894FFCFC5
:1000400008ED0CBF00E007BF08ED0CBF00E006BFE5
:10005000EB9A01B1006601B9E09A14D10CB30660C5
:100060000CBB0DB3097F0DBB08E400BB07E802BB66
:1000700000E001BB00E108B902B3006C02BB0895C7
:1000800095D200E0009901E001990E5F02990C5FA2
:10009000102F1A9529F01A9519F0125009F05DC029
:1000A00081D03BD22A3010E0304009F04AC00A9596
:1000B00029F00A9581F00250C9F03FC079D031F49F
:1000C0004BD20230F0F4008103951AC001E00083A6
:1000D00046D2108316C040D2002311F49CD0108366
:1000E0003BD2002371F000810A950AC061D019F15A
:1000F000EAEAF0E0008137D20023A9F488D02ED2BA
:100100000083408130D250E006E07CD021D254D030
:100110000651A02F104B1CD272D04ED00451A02FEC
:10012000104B16D205C002E00DD201E068D00AD211
:10013000E1E9F0E00193108302D237D00F5F1F4F47
:1001400018C030D0F7D1C6D1083C20E01040B8F03C
:100150000AE028D00193208312C024D0819190819D
:100160008530904040F421D0012B49F01ED0015041
:100170001040E3D104C005E010E014D0E3D1E5D194
:10018000039B08C0A7D1E1D1B8D151F0DED1ABD1EA
:10019000D4D106C0B2D119F4C9D109F416D0CFD147
:1001A000E0E009C2E1EAF0E00895E1EAF0E092C19E
:1001B00032D000810130089501931083E8EAF0E025
:1001C000408150E006E010E0E1C1C8D100834081E9
:1001D000EDE8F0E050E006E010E014D0B9D1ECDF3B
:1001E0000651A02F104BB4D10AD0E6DF0451A02F46
:1001F000104BAED1E1E9F0E00193108308C0EFE8C5
:10020000F0E00895C3D10851A02F104B089501E0EC
:1002100002D000830895E9EAF0E0089501E012B108
:100220001F7912B9E8984FED53E964E0415050400E
:100230006040E1F700C00000219906C0229902C089
:1002400005E008C004E006C0229902C003E002C035
:10025000039B02E011E0E89A4FE35DE063E0415068
:1002600050406040E1F700C0000021D14FE151EA69
:1002700067E0415050406040E1F700C00000139536
:10028000011748F702B10F7902B9E8980895BA93B7
:10029000AA938A93FA93EA937A936A935A934A9326
:1002A0003A932A931A930A938FB740D129F4EADF3D
:1002B0000DB3097F0DBBA7C001D10F3308F45EC099
:1002C00000E00083E7EAF0E00081002309F1ECEAB6
:1002D000F0E01081112312F4EAD00CC0ECD01AD156
:1002E00009F0159AF2D016D109F0169AEBD012D176
:1002F00009F0E89A212F1395ECEAF0E0108333D14E
:1003000002179CF40195ECEAF0E000832CD10DC0BB
:10031000D2D0F3D009F0159AD8D0EFD009F0169AC0
:10032000D1D020D1012B09F0E89AD4D0F9D030F403
:10033000C2D001910150304030830293BCD012D121
:10034000F1D018F4B8D00191F6D059DFC3D0BDD0A8
:10035000E9D010F4BAD0D8D0B8D0D2D010F4B5D0FB
:10036000C6D0E1E9F0E0B6D0ADD0DCD010F4AAD030
:10037000CBD0A8D0C5D010F4A5D0B9D09FD010E074
:10038000CFD008F01598A1D0CDD008F016989AD00B
:10039000C9D008F0E898E5EAF0E09CD0083C21E0FC
:1003A000120720F100E010E0E5EAF0E0019300839D
:1003B000D3D078D00452A02F104BCAD0E9E9F0E096
:1003C000C1D0CAD010E06ED00252A02F104BC0D0C6
:1003D000EBE9F0E0B7D0E9E9F0E08FD009F0EA9A74
:1003E000EBE9F0E08AD079F0E9980DC0E9E9F0E0B6
:1003F00099D009F4EA98EBE9F0E094D009F4E99A8D
:10040000E5EAF0E097D05AD0039500830F3111F45C
:1004100037DE36C00533A1F50EB11FB1EDE9F0E0CE
:1004200091D056D00735114038F457D028F437D042
:1004300051D00F5F1F4F09C04BD00835114030F02D
:100440002ED05BD019F02BD04ED077D046D030F0E4
:1004500001E0EAEAF0E0008304E60AC020D03AD0E6
:10046000E351F040012B49F400E0EAEAF0E00083B8
:10047000E7EAF0E00083EA51F04002B3006C02BB0F
:100480008FBF099119912991399149915991699198
:100490007991E991F9918991A991B9911895EFE92B
:1004A000F0E00895000F111F000F111F089522B1F1
:1004B0002F7922B9EACEE3E9F0E00895EBEAF0E023
:1004C00000810895E7E9F0E00895E5E9F0E0089596
:1004D000EDE9F0E0019110810895EFE9F0E0FADF35
:1004E0000C3B12400895F6DF015010400895019131
:1004F0000F5F3F4F308302930895ECDF012B089587
:100500000CD02017310708952191215030403083BD
:100510002293089502D0232B0895219130810895CC
:10052000E3E9F0E0FADF02171307089574DE0081B3
:1005300000230895CFDF0F5F1F4F1083DCCF0EE342
:1005400019E403D0019310830895E3EAF0E00895DD
:10055000B12F0D911C91089502D0B2CF02E0E8EACC
:10056000F0E00895B7DFEDE8F0E008950000889529
:10057000FECF0CE80DBF00E00EBFC5E6D0E030D0E6
:10058000002309F03DD04EDDF1DFF0CF22273327E5
:100590000030010741F01695079510F4240F351F20
:1005A000440F551FF5CF022F132F0895BA93AA9326
:1005B0009A938A930895F4E000C08991FA9541F0E6
:1005C0009991FA9529F0A991FA9511F0B991F0E075
:1005D0000F930FB7F894CE0FDF1F0FBF0F91089541
:1005E00001E0089520E006D0E9F70895219102D0B6
:1005F000E9F708952D9301501040202F212B0895E5
:100600008AEF9FE4E82FF92F01911081E82FF92F4D
:10061000EE5FFF4FA191B081E82FF92FEC5FFF4F04
:1006200021913081422F432B21F0E22FF32FDEDF87
:1006300001C0D8DF8A5F9F4F10E58030910710F32B
:0206400008951B
:100FBC000000000000000000000000000000C8015C
:100FCC000000BC0200000000000000000000000057
:100FDC0096004F012C01D700C8015B0004000300F0
:100FEC00060014000F001E00280023003C00200007
:040FFC008D00BC4F59
:00000001FF
:00000001FF
