:1000000014C4189518951895189518951895B6C292
:100010001895189518951895189518951895189578
:1000200018951895E99800C000C00000E99A0CD016
:1000300005D004D0E99808D0E99A0895E99800C05D
:1000400000C000C000C0E99A03E00A95F1F7000083
:100050000895C350E3EDFFE4019111912081CED1C9
:10006000019311932083D9D30FED13E924E00150BC
:1000700010402040E1F700C00000D6D09699FECF96
:100080000EB11FB141E3BED34AEA50E0EBD3402F9B
:10009000512F0E3100E0100708F48FC0042F0E51CD
:1000A00010400F31104028F4A4D002E3AED301E099
:1000B0001DC0042F152F0A5510400333104028F49B
:1000C00098D008E7A2D302E011C0042F152F055ADB
:1000D0001040003620E010408CD028F400EF01934F
:1000E000208304E003C00FEF86D107E0088300E01F
:1000F00010E004C021E082D1EE5F208317D231F0FE
:100100000399F8CF07E07AD1EE5F008302E400BBE9
:1001100020E030E002C088D085DF21503040D9F7A0
:100120009699FECF04E610E08DD34EB15FB19AD31D
:1001300060D060D32253304041F026543040F9F172
:100140002857304009F445C010C00A31F1D108F4F5
:1001500043C00932120708F444C00734104008F4C1
:1001600046C007E04BD1E395008310E003E0F0E0E8
:10017000EC2FE10F208120FD149A208121FD159A9A
:10018000208122FDE89A4FE35DE063E0415050405A
:100190006040E1F700C0000022B12F7C22B9E8984E
:1001A0004FE151EA67E0415050406040E1F700C044
:1001B000000013950A95E1F630D3CD5F089509321A
:1001C000B7D150F00D33120760F00F36104048F6EB
:1001D0000EC00135ADD110F404E0C4CF05361207CE
:1001E00010F402E0BFCF093C104008F0BACF01E0A4
:1001F000B9CFEFE9F0E0089508ED0CBF00E007BFCC
:1002000008ED0CBF00E006BFEB9A01B1006301B935
:10021000E09AE19A08E400BB07E802BB00E001BBFA
:1002200000E108B904E00DB902B3006C02BB089507
:10023000C250DAD200E0008380E090E0DFD0DBD073
:10024000A0E0B0E0D9DF05DF04E602BD0AE004BDAE
:1002500006B5006106BD789416C08A3000E09007AC
:1002600048F4C2D20081023029F400E00083DBD0E0
:1002700000E000830FEB14ED21E00150104020401E
:10028000E1F700C000004DD119F0013009F074C051
:10029000C6D021F452D10F31104060F0BAD021F411
:1002A0004CD10B35104030F0ACD071F446D1063A49
:1002B000104050F4B1D0083E23E0120770F49ED0F5
:1002C00001910C5E1F4F07C0A7D00630104028F0E8
:1002D000A3D00550104010830293A1D021F42DD15A
:1002E0000C33104060F495D021F427D10C38104025
:1002F00030F487D059F421D10430114038F0A83EB1
:1003000003E0B00748F4AC5EBF4F06C0A63000E083
:10031000B00710F0A550B040A53600E0B00758F087
:1003200063D209D15BD270D256D21193108359D2C5
:100330001193108321C070D0053620E0104054D2B4
:1003400080F0F9D048D20EE40193208347D2219364
:10035000208347D22193208362D071F467D001E0DB
:100360000AC0DCD049F420835ED0D8D029F457D01D
:1003700019F45CD000E0008352D029F426D246D094
:10038000013A1F4070F445D029F41FD23FD00935FF
:100390001B4138F436D061F418D238D0053C1940EE
:1003A00038F0883E03E0900748F48C5E9F4F06C00B
:1003B000863000E0900710F085509040082F192FEC
:1003C00006541040083A22E0124048F40DD220832F
:1003D00002D21AD203D21AD204D218D24BCF8E3EF6
:1003E000920708F43ACF22D09ED009F036CF80EDA4
:1003F00097E001E03ECF019300830895EC2FFD2F9D
:10040000089502D0003F0DC0EFE9F0E001911081A6
:100410000895FADF083705C0EC2FFD2FF7CFF4DF82
:10042000023310400895E7EAF0E08AD0EBEAF0E00A
:10043000089520E0009921E001992E5FEDEAF0E0B7
:10044000E5DF322F3A9511F03A95A9F50A3030E000
:10045000130751F52A9519F02A9579F023C0B8D1E0
:100460005DD039F4C4D10081023090F4008103954D
:100470000EC061D0BCD130830BC0B9D154D011F4BF
:10048000A7D13083B4D14FD019F000810A950083F1
:1004900048D011F4ACD154D03ED0B8DF012B11F0CC
:1004A00036D0B4D10BE010C00F5F1F4F083C1307CC
:1004B00060F00AE009C005303BD028F4202F212B42
:1004C00021F034D002C005E010E0EDEAF0E09ED16A
:1004D00022D09CDF039B0EC001302AD019F478D1C2
:1004E000208302C0012B91F016D001911FD0108300
:1004F00002930895012B41F46BD115D029F477D1E3
:100500001AD01ED065D117D002D080D1089503D063
:100510000EE319E40895EFEAF0E008950081013058
:100520000895ECEAF0E0008100230895015079CFAE
:1005300020E01207089501E05FCFEDE9F0E066CF1B
:1005400015D0EE51F04B62DFE1EAF0E00CD0EC5157
:10055000F04B5CDFE3EAF0E006D0EA51F04B56DF07
:10056000E5EAF0E053C152D1E7EAF0E0008110E0A3
:1005700046E050E067D1E02FF12F0895AA939A93B7
:100580008A93FA93EA937A936A935A934A933A93A3
:100590002A931A930A93AFB715D1708119D1C3DF8B
:1005A00079F43BD1E9987F3309F0B4C00BD100E076
:1005B000008305D120DF00D11EDFFBD01CDFAAC0E5
:1005C000EBE9F0E06081FBD041915081F5D012D190
:1005D000F0D01CDF7F3309F044C0F4D070E07083AA
:1005E000742F752B09F0149A722F732B09F0159A3A
:1005F000702F712B09F0E89AF7D070817723F1D032
:1006000031F5819190818417950710F44150504045
:100610004817590710F44F5F5F4FE0D081919081E8
:100620008217930710F4215030402817390710F42F
:100630002F5F3F4FD0D0819190818017910708F4B0
:1006400075DF0817190748F40F5F1F4F06C0419167
:100650005081C4D0CFD0BFD0D9DE6C3909F460E06E
:100660006395A7D0D3D0A8D021933083A8D041934D
:100670005083EBE9F0E0608354DF11F4A3D002C0B3
:10068000EBE9F0E0008110E09AD0B7D008F01498C0
:1006900093D0B3D008F015988CD0AFD008F0E8987C
:1006A000ECE9F0E0208182D0B1DE083C31E01307B4
:1006B000B8F07CD000E09FDE9AD0008110E0000FFF
:1006C000111F000F111FE02FF12FEA52F04B9EDE99
:1006D0006AD09CD068D09ADE012B49F021E007C097
:1006E00062D0419150810417150709F420E0ECE92C
:1006F000F0E020835BD08ADE0F5F1F4F10830293F0
:10070000ECE9F0E010DF29F091DE0DDF11F48ADC76
:1007100001C0E99857D0008103950083602F0F3105
:1007200009F487DEE7E9F0E0FEDEA1F4653391F439
:10073000969910C00EB11FB14CE164D042E650E072
:1007400091D0EDE9F0E065D002E400BBE7E9F0E02C
:1007500001E018C0E3DEC1F429D04CD024D056DE2D
:10076000055010402017310778F496990DC00EB14E
:100770001FB14AE047D029D04CD008E400BBE7E9DC
:10078000F0E000E0008350DDAFBF0991199129919D
:1007900039914991599169917991E991F9918991A9
:1007A0009991A9911895E3E9F0E00895E9E9F0E05D
:1007B0000895E1E9F0E00895EFE8F0E00895EDE84C
:1007C000F0E00895E8E9F0E00895E9EAF0E008953E
:1007D000E8EAF0E00895E5EAF0E00895E3EAF0E001
:1007E0000895E1EAF0E00895ECEAF0E00895E7EA20
:1007F000F0E0089521913081089521913081021710
:100800001307089550E01EC00EE410E0019310831A
:100810000895FCDFE150F040089502B10F7C02B969
:10082000E898089500008895FECF0CE80DBF00E021
:100830000EBFC5E6D0E02BD0002309F036D0F8DC9F
:10084000F1DFF0CF222733270030010741F0169562
:10085000079510F4240F351F440F551FF5CF022FB5
:10086000132F089522273327EFE0001F111F221FA7
:10087000331F2417350710F0241B350BEA95AAF710
:10088000001F111F422F532F00951095089501E06E
:10089000089520E02D9301501040E1F70895219133
:1008A0002D9301501040D9F7089544EF5FE4E42FF1
:1008B000F52F01911081E42FF52FEE5FFF4FA191ED
:1008C000B081E42FF52FEC5FFF4F21913081622F33
:1008D000632B21F0E22FF32FE2DF01C0DADF4A5F62
:0C08E0005F4F10E54030510710F3089501
:100FBF000000000000000000C80100000000000059
:100FCF0028003200000000E400000056010000C8B5
:100FDF000100001E00000000003C003C0000006407
:100FEF0000640064001000A100000014008D00BF19
:010FFF004FA2
:00082A01CD
:00000001FF
