:10000000A7C21895189518951895189518953AC17E
:100010001895189518951895189518951895189578
:10002000189518950CD0F5D004E602BD02E301BD89
:100030000AE004BD06B5006106BD7894FFCF08ED67
:100040000CBF00E007BF08ED0CBF00E006BFEB9A55
:1000500001B1006601B9E09A10D10CB306600CBB87
:100060000DB3097F0DBB08E400BB07E802BB00E04D
:1000700001BB00E108B902B3006C02BB089585D250
:1000800000E0009901E001990E5F02990C5F102FCA
:100090001A9529F01A9519F0125009F04AC0A8D003
:1000A0004BD22A3010E03040C1F50A9529F00A956C
:1000B00081F00250B9F02FC078D031F427D202304D
:1000C000E0F40081039518C001E0008321D2108381
:1000D00014C021D211F417D210831DD271F0008107
:1000E0000A950AC062D0A9F0EAEAF0E0008101D2E4
:1000F000002331F485D00CD2008351D05BD006C0F0
:1001000002E0F3D101E0EFE8F0E0EFD1E1E9F0E067
:1001100001931083E6D179D017C077D0F1D16DD09B
:10012000083C20E01040B0F00AE062D00193208348
:1001300011C05ED0819190818530904038F45BD0C1
:10014000012B41F058D0B1D1DBD104C005E010E063
:100150004FD0CBD1E3EAF0E0039B0CC0BFD119F440
:1001600000E0D1D1008318D0012BA1F015D09DD192
:10017000C7D110C0B3D169F4C6D1CED151F401E0DA
:10018000C7D100830CD010E015D0E1E9F0E0ADD18B
:1001900037D0A7D1E0E0FEC1E3EAF0E02EC0408115
:1001A000EDE8F0E050E006E00895E9EAF0E00081D3
:1001B00001300895DAD1A02FB12FA851B04B09D04A
:1001C0000BD0A651B04B05D0EFE8F0E005D0A4511C
:1001D000B04B0D911C91089501931083E8EAF0E073
:1001E000408150E006E010E0C0D1A02FB12F08956B
:1001F000E1EAF0E00895E1EAF0E00191108108956C
:1002000001E0E9EAF0E000830895F5DF0F5F1F4F9A
:10021000089501E012B11F7912B9E8984FED53E942
:1002200064E0415050406040E1F700C00000219977
:1002300006C0229902C005E008C004E006C0229969
:1002400002C003E002C0039B02E011E0E89A4FE322
:100250005DE063E0415050406040E1F700C00000C5
:1002600020D14FE151EA67E0415050406040E1F752
:1002700000C000001395011748F702B10F7902B9C9
:10028000E8980895BA93AA938A93FA93EA937A9393
:100290006A935A934A933A932A931A930A938FB77D
:1002A00032D13AD129F4E9DF0DB3097F0DBBA5C0E6
:1002B00002D10F3308F45DC000E00083E7EAF0E00C
:1002C0002BD109F1ECEAF0E01081112312F4E9D00E
:1002D0000CC0EED02ED109F0159AF4D02AD109F035
:1002E000169AEDD026D109F0E89A212F1395ECEA61
:1002F000F0E01083FED002179CF40195ECEAF0E0E8
:100300000083F7D00DC0D4D0E9D009F0159ADAD027
:10031000E5D009F0169AD3D0EBD0012B09F0E89A7A
:100320006CDF0DD128F4C4D00191132FBED0E8D0DA
:10033000BFD0DED006D118F4BBD00191DFD0EFE8FA
:10034000F0E05BDFBFD0FDD010F4BCD0ECD0BAD071
:10035000E6D010F4B7D0D0D0E1E9F0E04EDFAFD076
:10036000F0D010F4ACD0DFD0AAD0D9D010F4A7D000
:10037000C3D0A1D010E0E3D008F01598A3D0E1D00D
:1003800008F016989CD0DDD008F0E898E5EAF0E097
:1003900034DF083C21E0120710F100E010E0E5EA4C
:1003A000F0E001930083B2D077D0A452B04B11DFBC
:1003B000E9E9F0E09AD0AAD010E06ED0A252B04B9A
:1003C00008DFEBE9F0E091D0E9E9F0E087D009F04F
:1003D000EA9AEBE9F0E082D081F0E9980EC0E9E911
:1003E000F0E0AFD009F4EA98EBE9F0E0AAD009F424
:1003F000E99AE5EAF0E001DF81D05DD00395008362
:100400000F3111F43CDE39C00533B9F50EB11FB11F
:10041000EDE9F0E06AD0EDE9F0E0EFDE07351140FC
:1004200030F456D020F451D00F5F1F4F0CC0EDE9CF
:10043000F0E0E3DE0835114038F0EFE9F0E04ED0AF
:1004400019F043D032D05CD043D030F001E0EAEA7A
:10045000F0E0008304E609C038D0E351F040012BFE
:1004600049F400E0EAEAF0E00083E7EAF0E0008324
:10047000EA51F04002B3006C02BB8FBF09911991A1
:10048000299139914991599169917991E991F9911C
:100490008991A991B9911895000F111F000F111F93
:1004A000A4CE22B12F7922B9EBCE0150104008958D
:1004B000E3E9F0E00895EBEAF0E000810895E7E970
:1004C000F0E00895E5E9F0E00895EFE9F0E095CE79
:1004D000EFE9F0E092DE0C3B124008958EDE012B36
:1004E00008950EE319E4E3EAF0E001931083089520
:1004F00084DEEDE8F0E008950191132F0F5F1F4FA8
:10050000108302930895E9EAF0E0089501D0D5CF71
:10051000E8EAF0E00895FCDF0081002308950CD0A4
:1005200020173107089521912150304030832293C4
:10053000089502D0232B0895219130810895E3E995
:10054000F0E0FADF02171307089500008895FECF48
:100550000CE80DBF00E00EBFC5E6D0E030D00023B0
:1005600009F03DD05FDDF1DFF0CF222733270030E7
:10057000010741F01695079510F4240F351F440F1D
:10058000551FF5CF022F132F0895BA93AA939A936C
:100590008A930895F4E000C08991FA9541F0999109
:1005A000FA9529F0A991FA9511F0B991F0E00F931D
:1005B0000FB7F894CE0FDF1F0FBF0F91089501E022
:1005C000089520E006D0E9F70895219102D0E9F7D7
:1005D00008952D9301501040202F212B08958AEF6C
:1005E0009FE4E82FF92F01911081E82FF92FEE5F9A
:1005F000FF4FA191B081E82FF92FEC5FFF4F2191C0
:100600003081422F432B21F0E22FF32FDEDF01C098
:10061000D8DF8A5F9F4F10E58030910710F308956F
:100FBC000000000000000000000000000000C8015C
:100FCC000000BC0200000000000000000000000057
:100FDC00960057012C01E600C801720004000300C2
:100FEC00060014000F001E00280023003C00200007
:040FFC008D00BC4F59
:00000001FF
:00000001FF
